:100000000C945D000C9485000C9485000C94850084
:100010000C9485000C9485000C9485000C9485004C
:100020000C9485000C9485000C9485000C9485003C
:100030000C9485000C9485000C9485000C9485002C
:100040000C94F7010C9485000C9467020C94410207
:100050000C9485000C9485000C9485000C9485000C
:100060000C9485000C9485000000000024002700FB
:100070002A0000000000250028002B0004040404CE
:100080000404040402020202020203030303030342
:10009000010204081020408001020408102001021F
:1000A00004081020000000080002010000030407FB
:1000B0000000000000000000770311241FBECFEFF6
:1000C000D8E0DEBFCDBF11E0A0E0B1E0E8E5F7E0A9
:1000D00002C005900D92A439B107D9F722E0A4E936
:1000E000B1E001C01D92AB33B207E1F710E0CDE5FE
:1000F000D0E004C02197FE010E94A403CC35D107B3
:10010000C9F70E9499020C94AA030C940000E1EB39
:10011000F0E02491EDE9F0E09491E9E8F0E0E49179
:10012000EE23C9F0222339F0233001F1A8F4213065
:1001300019F1223029F1F0E0EE0FFF1FEE58FF4FCA
:10014000A591B4912FB7F894EC91811126C09095A8
:100150009E239C932FBF08952730A9F02830C9F023
:10016000243049F7209180002F7D03C0209180002A
:100170002F7720938000DFCF24B52F7724BDDBCFEE
:1001800024B52F7DFBCF2091B0002F772093B000B6
:10019000D2CF2091B0002F7DF9CF9E2BDACFAF9236
:1001A000BF92CF92DF92EF92FF920F931F93CF9364
:1001B000DF936C017B018B01040F151FEB015E01C6
:1001C000AE18BF08C017D10759F06991D601ED915B
:1001D000FC910190F081E02DC6010995892B79F7FA
:1001E000C501DF91CF911F910F91FF90EF90DF90AC
:1001F000CF90BF90AF900895FC01538D448D252F73
:1002000030E0842F90E0821B930B541710F0CF96B0
:10021000089501970895FC01918D828D981761F0E2
:10022000A28DAE0FBF2FB11D5D968C91928D9F5FF9
:100230009F73928F90E008958FEF9FEF0895FC01D8
:10024000918D828D981731F0828DE80FF11D858D8B
:1002500090E008958FEF9FEF0895FC01918D228D1E
:10026000892F90E0805C9F4F821B91098F739927A3
:1002700008958EE991E00E942D0121E0892B09F477
:1002800020E0822F089580E090E0892B29F00E94E1
:10029000390181110C9400000895FC01A48DA80F70
:1002A000B92FB11DA35ABF4F2C91848D90E00196B8
:1002B0008F739927848FA689B7892C93A089B189D8
:1002C0008C91837080648C93938D848D981306C079
:1002D0000288F389E02D80818F7D80830895EF92DD
:1002E000FF920F931F93CF93DF93EC0181E0888FF0
:1002F0009B8D8C8D98131AC0E889F989808185FFC0
:1003000015C09FB7F894EE89FF896083E889F98961
:1003100080818370806480839FBF81E090E0DF9163
:10032000CF911F910F91FF90EF900895F62E0B8DB6
:1003300010E00F5F1F4F0F731127E02E8C8D8E1171
:100340000CC00FB607FCFACFE889F989808185FFD8
:10035000F5CFCE010E944D01F1CFEB8DEC0FFD2FBB
:10036000F11DE35AFF4FF0829FB7F8940B8FEA8993
:10037000FB8980818062CFCFCF93DF93EC01888DA2
:100380008823B9F0AA89BB89E889F9898C9185FD10
:1003900003C0808186FD0DC00FB607FCF7CF8C919E
:1003A00085FFF2CF808185FFEDCFCE010E944D0108
:1003B000E9CFDF91CF910895FC0101900020E9F78A
:1003C0003197AF01481B590BBC018EE991E00C94A9
:1003D000CF00CF93DF930E94DC01EC0182E191E03A
:1003E0000E94DC018C0F9D1FDF91CF9108951F9219
:1003F0000F920FB60F9211242F933F938F939F93D9
:10040000AF93BF9380919A0190919B01A0919C0121
:10041000B0919D013091990123E0230F2D3758F5BC
:100420000196A11DB11D2093990180939A0190938B
:100430009B01A0939C01B0939D01809195019091A7
:100440009601A0919701B09198010196A11DB11D4F
:100450008093950190939601A0939701B093980192
:10046000BF91AF919F918F913F912F910F900FBEB0
:100470000F901F90189526E8230F0296A11DB11D1D
:10048000D2CF1F920F920FB60F9211242F933F934A
:100490004F935F936F937F938F939F93AF93BF938C
:1004A000EF93FF938EE991E00E944D01FF91EF9150
:1004B000BF91AF919F918F917F916F915F914F917C
:1004C0003F912F910F900FBE0F901F9018951F9284
:1004D0000F920FB60F9211242F938F939F93EF9348
:1004E000FF93E091AE01F091AF018081E091B40102
:1004F000F091B50182FD1BC090818091B7018F5FA3
:100500008F732091B801821741F0E091B701F0E0BC
:10051000E256FE4F958F8093B701FF91EF919F9127
:100520008F912F910F900FBE0F901F901895808183
:10053000F4CF789484B5826084BD84B5816084BD35
:1005400085B5826085BD85B5816085BD80916E0071
:10055000816080936E0010928100809181008260A2
:1005600080938100809181008160809381008091DF
:1005700080008160809380008091B10084608093CE
:10058000B1008091B00081608093B00080917A00CA
:10059000846080937A0080917A00826080937A00F0
:1005A00080917A00816080937A0080917A008068DF
:1005B00080937A001092C100E091AE01F091AF01FA
:1005C00082E08083E091AA01F091AB011082E0917A
:1005D000AC01F091AD018FEC80831092B601E091F7
:1005E000B201F091B30186E08083E091B001F09117
:1005F000B101808180618083E091B001F091B1010F
:10060000808188608083E091B001F091B1018081A8
:1006100080688083E091B001F091B10180818F7D8D
:100620008083EDE9F0E02491E9E8F0E0849188230B
:1006300099F090E0880F991FFC01E859FF4FA591B0
:10064000B491FC01EE58FF4F859194918FB7F894C7
:10065000EC91E22BEC938FBF80E00E94870085E154
:1006600091E00E94E90100E010E08EE991E00E9433
:100670002D0118161906ACF48EE991E00E940B01C9
:10068000C82F8133C1F48091940181110AC081E0A7
:100690000E94870081E08093940187E391E00E94AB
:1006A000E9010115110509F30E9439018823E9F2D6
:1006B0000E940000DACF803361F480919401882396
:1006C00081F380E00E9487001092940186E591E01A
:1006D000E6CF88E791E00E94DC016C2F8EE991E083
:1006E0000E946F0182E191E00E94DC01DACFEEE925
:1006F000F1E01382128288EE93E0A0E0B0E0848300
:100700009583A683B78384E091E09183808385EC11
:1007100090E09587848784EC90E09787868780ECCB
:1007200090E0918B808B81EC90E0938B828B82ECBC
:1007300090E0958B848B86EC90E0978B868B118E66
:10074000128E138E148E0895EE0FFF1F0590F491F4
:08075000E02D0994F894FFCF9D
:10075800000000006F01CF00FC00BC012D010B015F
:100768001F010D0A0041726475696E6F206C697310
:10077800746F2E204573706572616E646F206461BA
:10078800746F732E2E2E00416C6572746120414384
:100798005449564144412028526563696269646F2F
:1007A800202731272900416C657274612044455324
:1007B800414354495641444120285265636962695E
:1007C800646F202730272900427974652064657397
:1007D800636F6E6F6369646F2072656369626964D1
:0407E8006F3A200044
:00000001FF
